:1000000015EF01F00000000000EF00F0000000001C
:0A0010000000000000000000F3D71C
:06001C00000000001200CC
:100022000F0E0C6E470E0D6E0D2EFED70C2EFCD74A
:06003200000000001200B6
:0A003800210E0D6E0D2EFED71200F2
:1000420022BE02D0819A01D0818A22BC02D081983C
:1000520001D0818822BA02D0819601D0818622B84D
:1000620002D0819401D081841BB002D0828001D061
:1000720082908282D2DF829222B602D0819A01D00D
:10008200818A22B402D0819801D0818822B202D022
:10009200819601D0818622B002D0819401D08184E0
:1000A2001BB002D0828001D082908282B6DF82921F
:0C00B2001BA002D0B5DF01D0BEDF1200A1
:0C00BE001B9021C022F0BEDF1B8012004E
:1000CA000FD0800E1C6E19D0C00E1C6E16D0940E66
:1000DA001C6E13D0D40E1C6E10D0800E1C6E0DD068
:1000EA001C50010AEEE01C50020AEEE01C50030A02
:1000FA00EEE01C50040AEEE0F0D71D04006E1C501E
:10010A00002600C01CF000C022F096DF1B90206A77
:10011A0020501E24E96E000E1F20EA6EEE520BE0FC
:10012A0020501E24E96E000E1F20EA6EEECF21F049
:0A013A00C1DF202AEDD71B80120060
:1001440094929490939493969398939A8292829093
:10015400819A81988196819462DF61DF60DF818674
:100164008184828259DF82925ADF828255DF8292B1
:1001740056DF828251DF829252DF819482824CDF89
:1001840082924DDF828248DF82928196818A8282C6
:1001940043DF829244DF819A818482823DDF8292AE
:1001A4008194828239DF82923ADF828235DF8292C1
:1001B4008184828231DF829232DF819482822CDFD9
:1001C4008292818A818881868184828225DF8292DB
:0601D40026DF1B80120073
:1001DA000900F5CFE6FF0006FBE10106F9E112008E
:1001EA000F01386B396B3A6B600ED36EFF0E926E4D
:1001FA00130E936E900E946EFF0E966E9EDF010E96
:0C020A00226E1ADF0C0E226E17DF1200AD
:10021600010E1C6E010E1D6E150E1E6E000E1F6E5B
:0402260051DF120092
:10022A00450E156E730E166E730E176E610E186EEE
:0C023A00690E196E1A6AD4DFE9DFFFD7E5
:020000040030CA
:0D000100231F3CFFBF81FF0FC00FE00F4029
:00000001FF
