:1000000047EF01F00000000000EF00F000000000EA
:0A0010000000000000000000F3D71C
:06001C00000000001200CC
:100022000F0E0C6E470E0D6E0D2EFED70C2EFCD74A
:06003200000000001200B6
:0A003800210E0D6E0D2EFED71200F2
:0C00420072B201D0FDD72FC073FF120076
:10004E002FBE02D0819A01D0818A2FBC02D0819816
:10005E0001D081882FBA02D0819601D081862FB827
:10006E0002D0819401D0818419B002D0828001D057
:10007E0082908282CCDF82922FB602D0819A01D0FA
:10008E00818A2FB402D0819801D081882FB202D0FC
:10009E00819601D081862FB002D0819401D08184C7
:1000AE0019B002D0828001D082908282B0DF82921B
:0C00BE0019A002D0AFDF01D0B8DF1200A3
:0C00CA0019902BC02FF0BEDF198012002F
:1000D60074CF01F071A202D07198718801C000F04E
:0200E600120006
:0A00E800000EA4BA010E006E120013
:1000F200420E276E000E286E2F0E296E000E2A6EFB
:10010200D60E1B6E000E1C6E000E1D6E000E1E6EB5
:10011200E80E1F6E000E206E000E216E000E226E83
:10012200FF0E236EFF0E246E000E256E000E266E4D
:10013200728A900E716E938E939CA4AA03D074CF90
:0601420000F0FBD71200E3
:1001480094929490939493969398939A829282908F
:10015800819A81988196819460DF5FDF5EDF818676
:100168008184828257DF829258DF828253DF8292B3
:1001780054DF82824FDF829250DF819482824ADF8D
:1001880082924BDF828246DF82928196818A8282C6
:1001980041DF829242DF819A818482823BDF8292B0
:1001A8008194828237DF829238DF828233DF8292C3
:1001B800818482822FDF829230DF819482822ADFDB
:1001C8008292818A818881868184828223DF8292D9
:0601D80024DF1980120073
:1001DE002E6A2BC0E9FF2CC0EAFFEECF2DF02D507A
:1001EE00000A0DE02DC02FF025DF2E2A2E502B24D5
:1001FE00E96E000E2C20EA6EEECF2DF0F0D7120035
:10020E000900F5CFE6FF0006FBE10106F9E1120059
:10021E00010E0F01386F396B3A6BFF0E926E810E25
:10022E00936E990E946E89DF010E2F6E09DF0C0E00
:10023E002F6E06DF7086766ACF0E756E728452DF71
:02024E0012009C
:1002500080B205D0170E2B6E000E2C6EC0DF44DF6F
:100260000050010A08E137DF00C01AF000C02BF08F
:100270002CDF154A162A000E161802E1100E15186A
:0E02800005E1156A166A010E2F6EE1DE12000E
:10028E00156A166A410E176E186AC2DFDADFFED7DC
:02029E00FFD788
:020000040030CA
:0D000100231F3CFFBF81FF0FC00FE00F4029
:00000001FF
